{
  "contractName": "FlipContract",
  "abi": [
    {
      "anonymous": false,
      "inputs": [
        {
          "indexed": true,
          "internalType": "address",
          "name": "previousOwner",
          "type": "address"
        },
        {
          "indexed": true,
          "internalType": "address",
          "name": "newOwner",
          "type": "address"
        }
      ],
      "name": "OwnershipTransferred",
      "type": "event"
    },
    {
      "anonymous": false,
      "inputs": [
        {
          "indexed": true,
          "internalType": "address",
          "name": "user",
          "type": "address"
        },
        {
          "indexed": true,
          "internalType": "uint256",
          "name": "bet",
          "type": "uint256"
        },
        {
          "indexed": true,
          "internalType": "bool",
          "name": "win",
          "type": "bool"
        },
        {
          "indexed": false,
          "internalType": "uint8",
          "name": "side",
          "type": "uint8"
        }
      ],
      "name": "bet",
      "type": "event"
    },
    {
      "anonymous": false,
      "inputs": [
        {
          "indexed": false,
          "internalType": "address",
          "name": "owner",
          "type": "address"
        },
        {
          "indexed": false,
          "internalType": "uint256",
          "name": "funding",
          "type": "uint256"
        }
      ],
      "name": "funded",
      "type": "event"
    },
    {
      "inputs": [],
      "name": "ContractBalance",
      "outputs": [
        {
          "internalType": "uint256",
          "name": "",
          "type": "uint256"
        }
      ],
      "stateMutability": "view",
      "type": "function",
      "constant": true
    },
    {
      "inputs": [],
      "name": "owner",
      "outputs": [
        {
          "internalType": "address",
          "name": "",
          "type": "address"
        }
      ],
      "stateMutability": "view",
      "type": "function",
      "constant": true
    },
    {
      "inputs": [],
      "name": "renounceOwnership",
      "outputs": [],
      "stateMutability": "nonpayable",
      "type": "function"
    },
    {
      "inputs": [
        {
          "internalType": "address",
          "name": "newOwner",
          "type": "address"
        }
      ],
      "name": "transferOwnership",
      "outputs": [],
      "stateMutability": "nonpayable",
      "type": "function"
    },
    {
      "inputs": [
        {
          "internalType": "uint8",
          "name": "side",
          "type": "uint8"
        }
      ],
      "name": "flip",
      "outputs": [
        {
          "internalType": "bool",
          "name": "",
          "type": "bool"
        }
      ],
      "stateMutability": "payable",
      "type": "function",
      "payable": true
    },
    {
      "inputs": [],
      "name": "withdrawAll",
      "outputs": [
        {
          "internalType": "uint256",
          "name": "",
          "type": "uint256"
        }
      ],
      "stateMutability": "nonpayable",
      "type": "function"
    },
    {
      "inputs": [],
      "name": "getBalance",
      "outputs": [
        {
          "internalType": "uint256",
          "name": "",
          "type": "uint256"
        }
      ],
      "stateMutability": "view",
      "type": "function",
      "constant": true
    },
    {
      "inputs": [],
      "name": "fundContract",
      "outputs": [],
      "stateMutability": "payable",
      "type": "function",
      "payable": true
    }
  ],
  "bytecode": "0x608060405234801561001057600080fd5b5061002d61002261003260201b60201c565b61003a60201b60201c565b6100fe565b600033905090565b60008060009054906101000a900473ffffffffffffffffffffffffffffffffffffffff169050816000806101000a81548173ffffffffffffffffffffffffffffffffffffffff021916908373ffffffffffffffffffffffffffffffffffffffff1602179055508173ffffffffffffffffffffffffffffffffffffffff168173ffffffffffffffffffffffffffffffffffffffff167f8be0079c531659141344cd1fd0a4f28419497f9722a3daafe3b4186f6b6457e060405160405180910390a35050565b610d9d8061010d6000396000f3fe60806040526004361061007b5760003560e01c8063853828b61161004e578063853828b61461011d5780638da5cb5b14610148578063bd097e2114610173578063f2fde38b1461017d5761007b565b806312065fe0146100805780633b668059146100ab578063638c0637146100d6578063715018a614610106575b600080fd5b34801561008c57600080fd5b506100956101a6565b6040516100a29190610b2a565b60405180910390f35b3480156100b757600080fd5b506100c06101b0565b6040516100cd9190610b2a565b60405180910390f35b6100f060048036038101906100eb9190610874565b6101b6565b6040516100fd9190610a8f565b60405180910390f35b34801561011257600080fd5b5061011b610366565b005b34801561012957600080fd5b506101326103ee565b60405161013f9190610b2a565b60405180910390f35b34801561015457600080fd5b5061015d6104f0565b60405161016a9190610a4b565b60405180910390f35b61017b610519565b005b34801561018957600080fd5b506101a4600480360381019061019f919061084b565b610631565b005b6000600154905090565b60015481565b60006101cc60023461072990919063ffffffff16565b47101561020e576040517f08c379a000000000000000000000000000000000000000000000000000000000815260040161020590610aaa565b60405180910390fd5b60008260ff161480610223575060018260ff16145b610262576040517f08c379a000000000000000000000000000000000000000000000000000000000815260040161025990610b0a565b60405180910390fd5b60008260ff166002426102759190610caa565b14156102f057346001600082825461028d9190610c21565b925050819055503373ffffffffffffffffffffffffffffffffffffffff166108fc6002346102bb9190610bc7565b9081150290604051600060405180830381858888f193505050501580156102e6573d6000803e3d6000fd5b506001905061030e565b34600160008282546103029190610b71565b92505081905550600090505b801515343373ffffffffffffffffffffffffffffffffffffffff167f271b3e8d94a67ce5e9cee03d78c310019308ea7075468a4eb2bac8b027b14c4d866040516103589190610b45565b60405180910390a450919050565b61036e61073f565b73ffffffffffffffffffffffffffffffffffffffff1661038c6104f0565b73ffffffffffffffffffffffffffffffffffffffff16146103e2576040517f08c379a00000000000000000000000000000000000000000000000000000000081526004016103d990610aea565b60405180910390fd5b6103ec6000610747565b565b60006103f861073f565b73ffffffffffffffffffffffffffffffffffffffff166104166104f0565b73ffffffffffffffffffffffffffffffffffffffff161461046c576040517f08c379a000000000000000000000000000000000000000000000000000000000815260040161046390610aea565b60405180910390fd5b3373ffffffffffffffffffffffffffffffffffffffff166108fc479081150290604051600060405180830381858888f193505050501580156104b2573d6000803e3d6000fd5b50600047146104ea577f4e487b7100000000000000000000000000000000000000000000000000000000600052600160045260246000fd5b47905090565b60008060009054906101000a900473ffffffffffffffffffffffffffffffffffffffff16905090565b61052161073f565b73ffffffffffffffffffffffffffffffffffffffff1661053f6104f0565b73ffffffffffffffffffffffffffffffffffffffff1614610595576040517f08c379a000000000000000000000000000000000000000000000000000000000815260040161058c90610aea565b60405180910390fd5b60003414156105a357600080fd5b6105b83460015461080b90919063ffffffff16565b6001819055507fed7d0ddcc17abdb3935a0a23cd93e91b449dfeac7fd0def9f481ed5b37e18c4d33346040516105ef929190610a66565b60405180910390a1476001541461062f577f4e487b7100000000000000000000000000000000000000000000000000000000600052600160045260246000fd5b565b61063961073f565b73ffffffffffffffffffffffffffffffffffffffff166106576104f0565b73ffffffffffffffffffffffffffffffffffffffff16146106ad576040517f08c379a00000000000000000000000000000000000000000000000000000000081526004016106a490610aea565b60405180910390fd5b600073ffffffffffffffffffffffffffffffffffffffff168173ffffffffffffffffffffffffffffffffffffffff16141561071d576040517f08c379a000000000000000000000000000000000000000000000000000000000815260040161071490610aca565b60405180910390fd5b61072681610747565b50565b600081836107379190610bc7565b905092915050565b600033905090565b60008060009054906101000a900473ffffffffffffffffffffffffffffffffffffffff169050816000806101000a81548173ffffffffffffffffffffffffffffffffffffffff021916908373ffffffffffffffffffffffffffffffffffffffff1602179055508173ffffffffffffffffffffffffffffffffffffffff168173ffffffffffffffffffffffffffffffffffffffff167f8be0079c531659141344cd1fd0a4f28419497f9722a3daafe3b4186f6b6457e060405160405180910390a35050565b600081836108199190610b71565b905092915050565b60008135905061083081610d39565b92915050565b60008135905061084581610d50565b92915050565b60006020828403121561085d57600080fd5b600061086b84828501610821565b91505092915050565b60006020828403121561088657600080fd5b600061089484828501610836565b91505092915050565b6108a681610c55565b82525050565b6108b581610c67565b82525050565b60006108c8602183610b60565b91507f54686520636f6e7472616374206861736e277420656e6f756768742066756e6460008301527f73000000000000000000000000000000000000000000000000000000000000006020830152604082019050919050565b600061092e602683610b60565b91507f4f776e61626c653a206e6577206f776e657220697320746865207a65726f206160008301527f64647265737300000000000000000000000000000000000000000000000000006020830152604082019050919050565b6000610994602083610b60565b91507f4f776e61626c653a2063616c6c6572206973206e6f7420746865206f776e65726000830152602082019050919050565b60006109d4602283610b60565b91507f496e636f727265637420736964652c206e6565647320746f2062652030206f7260008301527f20310000000000000000000000000000000000000000000000000000000000006020830152604082019050919050565b610a3681610c93565b82525050565b610a4581610c9d565b82525050565b6000602082019050610a60600083018461089d565b92915050565b6000604082019050610a7b600083018561089d565b610a886020830184610a2d565b9392505050565b6000602082019050610aa460008301846108ac565b92915050565b60006020820190508181036000830152610ac3816108bb565b9050919050565b60006020820190508181036000830152610ae381610921565b9050919050565b60006020820190508181036000830152610b0381610987565b9050919050565b60006020820190508181036000830152610b23816109c7565b9050919050565b6000602082019050610b3f6000830184610a2d565b92915050565b6000602082019050610b5a6000830184610a3c565b92915050565b600082825260208201905092915050565b6000610b7c82610c93565b9150610b8783610c93565b9250827fffffffffffffffffffffffffffffffffffffffffffffffffffffffffffffffff03821115610bbc57610bbb610cdb565b5b828201905092915050565b6000610bd282610c93565b9150610bdd83610c93565b9250817fffffffffffffffffffffffffffffffffffffffffffffffffffffffffffffffff0483118215151615610c1657610c15610cdb565b5b828202905092915050565b6000610c2c82610c93565b9150610c3783610c93565b925082821015610c4a57610c49610cdb565b5b828203905092915050565b6000610c6082610c73565b9050919050565b60008115159050919050565b600073ffffffffffffffffffffffffffffffffffffffff82169050919050565b6000819050919050565b600060ff82169050919050565b6000610cb582610c93565b9150610cc083610c93565b925082610cd057610ccf610d0a565b5b828206905092915050565b7f4e487b7100000000000000000000000000000000000000000000000000000000600052601160045260246000fd5b7f4e487b7100000000000000000000000000000000000000000000000000000000600052601260045260246000fd5b610d4281610c55565b8114610d4d57600080fd5b50565b610d5981610c9d565b8114610d6457600080fd5b5056fea2646970667358221220e93fc033a648372ff356b03f76f10e4899c6621f29aef20975986c7ae52d090a64736f6c63430008000033",
  "immutableReferences": {},
  "source": "// SPDX-License-Identifier: MIT\npragma solidity ^0.8.0;\n\nimport \"../node_modules/@openzeppelin/contracts/access/Ownable.sol\";\nimport \"../node_modules/@openzeppelin/contracts/utils/math/SafeMath.sol\";\n\ncontract FlipContract is Ownable {\n    \n    using SafeMath for uint256;\n\n    uint public ContractBalance;\n\n    event bet(address indexed user, uint indexed bet, bool indexed win, uint8 side);\n    event funded(address owner, uint funding);\n\n    // Function to simulate coin flip 50/50 randomnes\n    function flip(uint8 side) public payable returns(bool){\n        require(address(this).balance >= msg.value.mul(2), \"The contract hasn't enought funds\");\n        require(side == 0 || side == 1, \"Incorrect side, needs to be 0 or 1\");\n        bool win;\n        if(block.timestamp % 2 == side){\n            ContractBalance -= msg.value;\n            payable(msg.sender).transfer(msg.value * 2);\n            win = true;\n        }\n        else{\n            ContractBalance += msg.value;\n            win = false;\n        }\n        emit bet(msg.sender, msg.value, win, side);\n    }\n    // Function to Withdraw Funds\n    function withdrawAll() public onlyOwner returns(uint){\n        payable(msg.sender).transfer(address(this).balance);\n        assert(address(this).balance == 0);\n        return address(this).balance;\n    }\n    // Function to get the Balance of the Contract\n    function getBalance() public view returns (uint) {\n        return ContractBalance;\n    }\n    // Fund the Contract\n    function fundContract() public payable onlyOwner {\n        require(msg.value != 0);\n        ContractBalance = ContractBalance.add(msg.value);\n        emit funded(msg.sender, msg.value);\n        assert(ContractBalance == address(this).balance);\n    }\n\n}\n",
  "sourcePath": "/media/mxdev/FCF85F3BF85EF37E/ETHCODE/coinflip-servless-dapp/truffle/contracts/flipcontract.sol",
  "compiler": {
    "name": "solc",
    "version": "0.8.0+commit.c7dfd78e.Emscripten.clang"
  },
  "schemaVersion": "3.4.3",
  "updatedAt": "2021-09-29T00:42:43.935Z",
  "networkType": "ethereum",
  "devdoc": {
    "kind": "dev",
    "methods": {
      "owner()": {
        "details": "Returns the address of the current owner."
      },
      "renounceOwnership()": {
        "details": "Leaves the contract without owner. It will not be possible to call `onlyOwner` functions anymore. Can only be called by the current owner. NOTE: Renouncing ownership will leave the contract without an owner, thereby removing any functionality that is only available to the owner."
      },
      "transferOwnership(address)": {
        "details": "Transfers ownership of the contract to a new account (`newOwner`). Can only be called by the current owner."
      }
    },
    "version": 1
  },
  "userdoc": {
    "kind": "user",
    "methods": {},
    "version": 1
  }
}